:020000040800F2
:1000000070050020010100082F1A0008ED170008F4
:100010002D1A000819020008991F000800000000AE
:100020000000000000000000000000005B1A000853
:100030001B02000800000000591A00085D1A0008A1
:100040001B0100081B0100081B0100081B01000820
:100050001B0100081B0100081B0100081B01000810
:100060001B0100081B0100081B0100081B01000800
:100070001B0100081B0100081B0100081B010008F0
:100080001B0100081B0100081B0100081B010008E0
:100090001B0100081B0100081B0100081B010008D0
:1000A0001B0100081B0100081B0100081B010008C0
:1000B0001B010008C11A00081B0100081B010008F1
:1000C0001B0100081B0100081B0100081B010008A0
:1000D0001B0100088D1F00081B0100081B01000800
:1000E0001B0100081B0100081B010008DFF80CD0F1
:1000F00000F080F8004800476921000870050020E2
:100100000648804706480047FEE7FEE7FEE7FEE7B1
:10011000FEE7FEE7FEE7FEE7FEE7FEE7BF1A0008A0
:10012000ED000008D2B201E000F8012B491EFBD21D
:1001300070470022F6E710B513460A4604461946F2
:10014000FFF7F0FF204610BDC10F80EAE0700844C1
:10015000CA079623002100F01FB830B50B460146B0
:1001600000202022012409E021FA02F59D4205D356
:1001700003FA02F5491B04FA02F52844151EA2F100
:100180000102F1DC30BD0029A8BF7047401C4900C6
:1001900008BF20F00100704710B4B0FA80FC00FAEC
:1001A0000CF050EA010404BF10BC704749B1CCF117
:1001B000200421FA04F411FA0CF118BF01212143A3
:1001C0000843A3EB0C01CB1D4FEA00614FEA10205E
:1001D00042BF002010BC704700EBC3501044002900
:1001E000A4BF10BC7047401C490008BF20F00100AC
:1001F00010BC7047064C074D06E0E06840F0010374
:1002000094E8070098471034AC42F6D3FFF772FF2A
:1002100090240008B0240008FEE7704772B6FEE79D
:1002200010B590F821100022022905D00421816325
:1002300080F82020012010BD01680B6823F00E0318
:100240000B6001680B6823F001030B6090F84030ED
:10025000C46B012101FA03F3636080F8211080F878
:100260002020104610BD000010B590F82110002489
:10027000022903D00421816301243DE001680A685A
:1002800022F00E020A6001680A6822F001020A6088
:100290001A4A0168914201D1012121E0174A143222
:1002A000914201D110211BE0144A2832914201D120
:1002B000891515E0114A3C32914201D189140FE0B1
:1002C0000E4A5032914202D14FF4803108E00B4A7D
:1002D0006432914202D14FF4801101E04FF08071FD
:1002E000064A083A5160012180F82110002180F867
:1002F0002010416B01B18847204610BD0800024024
:100300002DE9F84FDFF8B8910024A9F1040B23463A
:100310000F2709F1040AABF1040EC9E00125A5403D
:100320002A40AA427DD1674ED1F804C0ACEB060842
:10033000B44532D014DCBCF1030F3AD009DCBCF177
:10034000000F2AD0BCF1010F1CD0BCF1020F31D13B
:100350001DE0BCF1110F17D0BCF1120F2AD119E02A
:10036000B8F5881F19D006DCB8F5803F15D0B8F570
:10037000801F1FD111E0B8F5001F0ED0B8F5041F83
:1003800018D10AE0CB6815E0CB681B1D12E0CB68E2
:1003900008330FE0CB680C330CE08B682BB1012BDA
:1003A0004FF0080303D0456104E0042302E0056137
:1003B00000E00023FF2A01D8064601E000F1040610
:1003C0004FEA840501D9A5F12005D6F8008007FA87
:1003D00005FC28EA0C0803FA05F548EA0508C6F802
:1003E00000804D68ED0062D5374DAE6946F00106DC
:1003F000AE61AD6924F0030605F001050095334DAB
:1004000006EB050CDCF80850A607360F07FA06F8CD
:1004100025EA0805DFF8B880404503D14FF0000811
:1004200017E044E0DFF8AC80404502D14FF001080E
:100430000FE0DFF8A480404502D14FF0020808E049
:10044000DFF89880404502D14FF0030801E04FF0FB
:10045000040808FA06F848EA0508CCF808804D6850
:10046000D9F80060ED024D4601D5164300E09643F1
:100470002E604D68DAF80060AD02554601D516438E
:1004800000E096432E604D68DBF80060AD035D46EA
:1004900001D5164300E096432E604D68DEF80060FB
:1004A000ED03754601D5164300E096432E60641CAB
:1004B0000D682A46E5407FF431AFBDE8F88F0000B3
:1004C000080401400000111000100240000001402B
:1004D00000080140000C01400010014000140140E0
:1004E0008068084000D0012070470AB10161704760
:1004F0000904FBE701488068704700001C000020E9
:100500000248816802781144816070471C00002015
:10051000074810B5016841F010010160032000F0A8
:1005200075F80F2000F006F800F024F8002010BD48
:100530000020024070B50D4D04464FF47A712878C2
:10054000B1FBF0F00A490968B1FBF0F000F0DCFA09
:1005500048B9102C07D200222146501E00F036F870
:1005600000206C6070BD012070BD00001C000020E8
:10057000280000200C4808B5816941F00101816123
:10058000816901F001010091C16941F08051C161AF
:10059000C06900F0805000900448416821F0E0619B
:1005A00041F00071416008BD0010024000000140B0
:1005B000002809DB00F01F02012191404009800062
:1005C00000F1E020C0F8001170470000F0B40E4BBD
:1005D0001B680C46C3F30223C3F10705042D00D9A1
:1005E0000425191D072901D2002300E0DB1E012686
:1005F00006FA05F1491E214099409E40761E16409C
:100600003143F0BC01F0DABC0CED00E0064900F02B
:10061000070208684FF6FF03184040EA0220034A29
:1006200010430860704700000CED00E00000FA0580
:100630002DE9F0470F46050061D0434E306800F0C9
:100640000700B84209D2306820F007003843306014
:10065000306800F00700B84251D128683B4C810750
:1006600012D5400703D5606840F4E06060602878E8
:10067000000703D5606840F4605060606068A96856
:1006800020F0F000084360602878C00728D0686830
:10069000012810D02168022810D0890700292EDAFD
:1006A000616821F0030101436160FFF723FF804689
:1006B00041F288390DE021688903EFE78901EDE710
:1006C000FFF718FFA0EB0801494502D90320BDE858
:1006D000F0876068696800F00C00B0EB810FEFD123
:1006E000306800F00700B8420BD9306820F00700EE
:1006F00038433060306800F00700B84201D0012074
:10070000E5E72878400705D56068E96820F4E060EF
:10071000084360602878000706D56068296920F4DE
:10072000605040EAC100606000F038F86168084A33
:10073000C1F30311515CC8400649086006480068CF
:10074000FFF7F8FE0020C2E7002002400010024040
:1007500076240008280000202000002004480549D5
:1007600000684968044AC1F30221515CC8407047DF
:100770002800002000100240862400080448054993
:1007800000684968044AC1F3C221515CC8407047FF
:100790002800002000100240862400080E4A5168FC
:1007A0000E4801F00C03042B11D0082B0FD10C487C
:1007B000C1F38343C903C05C0AD55168084AC1F339
:1007C0004041921E515C054A5043B0FBF1F0704726
:1007D00004494843704700000010024000127A00AC
:1007E0006624000800093D002DE9F84F040070D090
:1007F0002078C04DC00749D06868C0F38100012847
:1008000007D06868C0F38100022809D16868C00376
:1008100006D52868800339D560680028E7D035E020
:100820006068B0F5803F0BD010B1B0F5A02F11D0AB
:10083000286820F480302860286820F4802002E0B6
:10084000286840F480302860606890B1FFF752FE5D
:1008500006460AE0286840F480202860F0E700BFE0
:10086000FFF748FE801B642873D828688003F7D5FB
:100870000CE0FFF73FFE064605E000BFFFF73AFE3B
:10088000801B6428F0D828688003F7D420789A4E1B
:1008900080074FF001094FF0000839D5686810F063
:1008A0000C0F07D06868C0F38100022809D168687E
:1008B000C00306D42868800714D52069012808D110
:1008C00010E02069B0B1C6F80090FFF713FE0746AC
:1008D00005E00AE1FFF70EFEC01B0228C4D8286815
:1008E0008007F7D52868616920F0F80040EAC10068
:1008F00028600DE0C6F80080FFF7FCFD074604E025
:10090000FFF7F8FDC01B022823D828688007F7D41A
:10091000207800072CD57948A169D9B1C0F800909A
:10092000FFF7E8FD074604E0FFF7E4FDC01B0228DF
:100930000FD8686A8007F7D571484FF4FA510068FC
:10094000B0FBF1F0009000BF0098411E0091FAD278
:100950000EE080E0C0F80080FFF7CCFD074604E021
:10096000FFF7C8FDC01B022875D8686A8007F7D456
:100970002078400760D5E8690027C00008D4E869FE
:1009800040F08050E861E869012700F08050009055
:100990005C480168C90513D40168834641F480713D
:1009A0000160FFF7A7FD824606E000BFFFF7A2FD4A
:1009B000A0EB0A0064284ED8DBF80000C005F5D58E
:1009C000E06801280AD008B1052813D0286A20F071
:1009D00001002862286A20F0040002E0286A40F042
:1009E00001002862E06841F2883B98B1FFF782FD80
:1009F00082460BE0286A40F004002862EEE700BF60
:100A0000FFF778FDA0EB0A0159455AD8286A8007FC
:100A1000F6D50CE0FFF76EFD824605E0FFF76AFDB4
:100A2000A0EB0A0159454CD8286A8007F6D41FB1BB
:100A3000E86920F08050E861E06988B36968C1F333
:100A40008101022944D00228C6F8608004D0FFF753
:100A500051FD044638E034E0FFF74CFD074604E062
:100A6000FFF748FDC01B02282BD828688001F7D467
:100A7000206AB0F5803F05D16868A16820F4003095
:100A800008436860D4E908010843696821F47411D7
:100A900008436860C6F86090FFF72CFD044606E046
:100AA00025E000BFFFF726FD001B022809D82868B3
:100AB0008001F7D51BE000BFFFF71CFD001B0228DB
:100AC00002D90320BDE8F88F28688001F4D40EE035
:100AD0000128F7D06868226A00F48031914204D17D
:100AE000616A00F47010884201D00120EAE700201A
:100AF000E8E7000000100240000042428004424249
:100B0000280000200070004010B5401EB0F1807F2A
:100B100001D3012010BD4FF0E02460610F21601768
:100B200001F04CFA0020A06107202061002010BDD8
:100B30007047704770B590F83C20012A26D00124F8
:100B400080F83C40022280F83D2003685A689D6886
:100B500022F070060A6832435A600D4B02689A42CE
:100B600008D0B2F1804F05D00A4B9A4202D00A4B0E
:100B70009A4204D1496825F080031943916080F8B6
:100B80003D40002180F83C10084670BD022070BD39
:100B9000002C0140000400400008004010B5040093
:100BA00003D094F83D0010B107E0012010BD0020F3
:100BB00084F83C00204600F01FF8022084F83D0035
:100BC000211D206800F082FF012084F8460084F88F
:100BD0003E0084F83F0084F8400084F8410084F827
:100BE000420084F8430084F8440084F8450084F807
:100BF0003D00002010BD000008B501681048B1F1AB
:100C0000804F14D00F4A914219D1C16941F00201BD
:100C1000C161C069002200F00200009011461D2051
:100C2000FFF7D4FCBDE808401D20FFF7C1BCC16937
:100C300041F00101C161C06900F00100009008BDF0
:100C4000001002400004004090F83D10012901D03E
:100C500001207047022180F83D100168CA6842F007
:100C60000102CA6000680B49884208D0B0F1804F89
:100C700005D00949884202D00849884204D18168D8
:100C800001F00701062903D0016841F0010101606C
:100C900000207047002C0140000400400008004084
:100CA00070B5044690F83C000025012817D00126B5
:100CB00084F83C60022084F83D002068826822F0BD
:100CC000770222F47F4282600868502838D00DDC19
:100CD00020284FD005DC90B3102811D14AE0022023
:100CE00070BD302846D040280AD13BE060282FD084
:100CF00070280DD0B0F5805F03D0B0F5005F12D042
:100D0000012584F83D60002084F83C00284670BD31
:100D1000CB68D1E90121206800F01BFF20688168C1
:100D200041F0770109E0CB68D1E90121206800F0AA
:100D300010FF2068816841F480418160E1E719E09B
:100D4000CA684968206800F0B9FF5021206806E0B1
:100D5000CA684968206800F0C2FF6021206800F07E
:100D600002FFCEE7CA684968206800F0A7FF40216B
:100D70002068F4E7226801461046F0E72DE9F041CB
:100D80000D46040003D094F83D0018B108E001209E
:100D9000BDE8F081002084F83C00204600F040F8D7
:100DA000022084F83D002068816844F207029143E4
:100DB0008160211D206800F089FE22689068916999
:100DC000166A2B68AF69034340F20330814341EA5E
:100DD0000721A868EF6908434FF6FC418843E9689A
:100DE00040EA0720014328692F6A000140EA0730E2
:100DF000084369686D6926F0220646EA051529430D
:100E000093602268906154F8460B0162012004F857
:100E10001F09E0752076E0762077A0750020B7E7FF
:100E200000B585B000210091019102910391006805
:100E30000D49884216D10D48C16941F00401C161D4
:100E4000C16901F004010491816941F008018161E7
:100E50008069694600F008000490C02000900448B2
:100E6000FFF74EFA05B000BD000800400010024038
:100E7000000C014070B590F83E60044690F83F5079
:100E800090F8423090F84320022021B104290ED07E
:100E9000012E1BD114E0012E18D1012B16D184F89C
:100EA0003E0084F8420001220021206820E0012D4C
:100EB0000CD1012A0AD184F83F0084F8430014E0E1
:100EC000012D03D1012B01D1012A01D0012070BDD8
:100ED00084F83E0084F83F0084F8420084F8430020
:100EE00001220021206800F027FE01220421206851
:100EF00000F022FE2068016841F00101016000203D
:100F000070BD704770B50446006801694FF0000578
:100F1000C943890715D4C168C943890711D4E91E9B
:100F2000016101202077206880698007204602D077
:100F3000FFF7E7FF04E000F0DBF8204600F06DF972
:100F4000257720680169C943490717D4C168C94397
:100F5000490713D46FF00401016102202077206853
:100F6000806910F4407F204602D0FFF7CAFF04E0FA
:100F700000F0BEF8204600F050F92577206801699E
:100F8000C943090716D4C168C943090712D46FF0D1
:100F900008010161042020772068C069800720468D
:100FA00002D0FFF7AEFF04E000F0A2F8204600F008
:100FB00034F9257720680169C943C90617D4C16887
:100FC000C943C90613D46FF01001016108202077CE
:100FD0002068C06910F4407F204602D0FFF791FFDF
:100FE00004E000F085F8204600F017F92577206826
:100FF0000169C943C90708D1C168C943C90704D1F8
:10100000891E0161204600F057F920680169C94333
:10101000090609D4C168C943090605D46FF08001E7
:1010200001612046FFF784FD20680169C943490634
:1010300009D4C168C943490605D46FF04001016174
:10104000204600F079F920680169C94389060BD46C
:10105000C168C943890607D46FF0200101612046A9
:10106000BDE87040FFF765BD70BD000010B586B0EB
:10107000002100910191029103910068B0F1804F2D
:101080002BD11748816941F004018161816901F028
:1010900004010491816941F00801816180690224A1
:1010A00000F0080004904FF40040CDE900046946C8
:1010B0000C480394FFF724F90820CDE900046946A1
:1010C00009480394FFF71CF90848416821F440716E
:1010D00041F0E06141F48071416006B010BD000054
:1010E0000010024000080140000C014000000140D7
:1010F000704770B5044690F83C0000260D46012864
:101100000FD0012084F83C006AB1042A1DD0082ABF
:101110002FD00C2A3FD00126002084F83C00304616
:1011200070BD022070BD206800F026FD2068816936
:1011300041F0080181612068816921F00401816129
:10114000206881692A69114311E0206800F03CFDA4
:101150002068816941F4006181612068816921F41E
:1011600080618161206881692A6941EA0221816187
:10117000D2E7206800F054FD2068C16941F0080101
:10118000C1612068C16921F00401C1612068C169A1
:101190002A69114311E0206800F06EFD2068C169E2
:1011A00041F40061C1612068C16921F48061C161BD
:1011B0002068C1692A6941EA0221C161ACE710B522
:1011C000040003D094F83D0010B107E0012010BDE9
:1011D000002084F83C00204600F01EF8022084F82D
:1011E0003D00211D206800F071FC012084F84600BC
:1011F00084F83E0084F83F0084F8400084F8410001
:1012000084F8420084F8430084F8440084F84500E0
:1012100084F83D00002010BD7047704710B50446AB
:10122000022249B104290ED0082913D094F84100B4
:10123000012816D0012010BD94F83E000128F9D1F4
:1012400084F83E200FE094F83F000128F2D184F8A2
:101250003F2008E094F840000128EBD184F84020BA
:1012600001E084F841200122206800F065FC0F496C
:101270002068884203D1426C42F4004242642068F4
:10128000884208D0B0F1804F05D00949884202D089
:101290000849884204D1816801F00701062903D07A
:1012A000016841F001010160002010BD002C0140E7
:1012B0000004004000080040124910B588421FD1C8
:1012C000114C1248216961610068406A2061081A66
:1012D000FEF73AFF0E494860207908B10DA00BE0F7
:1012E000607908B10EA007E0207A08B10EA003E0F3
:1012F000607A002804D00EA0BDE8104000F04EBE79
:1013000010BD00009800002000000020E000002038
:101310003000002053747261696768740D0A000020
:1013200053746F700D0A00004C6566740D0A00005E
:1013300052696768740D0A00704770477047000073
:10134000F8B5016804460868CA684B6910F00F0FC9
:101350004FF000055AD003F0010602F490773743AE
:1013600065D0C10705D0D10503D5616C41F00101FD
:101370006164410705D5D90703D0616C41F00201D2
:101380006164810705D5D90703D0616C41F0040180
:101390006164010707D502F02001314303D0616C7D
:1013A00041F008016164616C00293BD0800604D5DE
:1013B000900602D5204600F0D3FC20684069616C9D
:1013C000C0F3801001F00801014320462BD000F04B
:1013D000A0FC20684069400621D52068143050E800
:1013E000001F21F0400140E80012002AF5D1E06B17
:1013F000A8B16D494163E06BFEF736FF002811D0BC
:10140000E06B416B01B0BDE8F040084783060ED5A4
:1014100093060CD52046BDE8F84000F0A1BC20465C
:10142000FFF78CFFF8BDFFF789FF6564F8BD266BF9
:101430002023012E7CD1C6067AD5D60678D5086839
:101440004868009048694FF00206400640D5E16BBD
:10145000086840680004000CE8D0A28D8242E5D9FB
:10146000E085886920282DD020680C3050E8001FC6
:1014700021F4807140E80012002AF5D1216814316E
:1014800051E8000F20F0010041E80002002AF5D1E8
:101490002068143050E8001F21F0400140E800129D
:1014A000002AF5D184F84230256320680C3050E8DA
:1014B000001F21F0100140E80012002AF5D1E06B76
:1014C000FEF7AEFE6663A08DE18D401A81B22AE080
:1014D000A08DE18D401A81B2E08D0028A6D00029B0
:1014E000A4D022680C3252E8000F20F4907042E839
:1014F0000007002FF5D12068143050E8002F22F0AB
:10150000010240E80027002FF5D184F8423025631E
:1015100020680C3050E8002F22F0100240E8002331
:10152000002BF5D166632046FFF707FFF8BDFFE704
:1015300005062BD5150629D594F841002128F5D1AB
:10154000A068B0F5805F01D12069B0B1206A411C6C
:101550002162216800784860E08C401E0004000C85
:10156000E084E3D12068C16821F08001C160206877
:10157000C16841F04001C160D8E7206A0088C0F32B
:1015800008004860206A801C2062E5E74006CDD54F
:101590005006CBD5CA68204622F04002CA6084F8C3
:1015A000413000F022F9C1E7031D000870B50400C6
:1015B00004D094F84100002510B106E0012070BD70
:1015C00084F84050204600F023F8242084F841009D
:1015D0002068C16821F40051C160204600F022FC5F
:1015E0002068016921F4904101612068416921F07E
:1015F0002A0141612068C16841F40051C1606564FD
:10160000202084F8410084F842006563002070BD0A
:1016100030B585B0002400940194029403940068CE
:10162000184988422CD11848816941F48041816170
:10163000816901F480410491816941F00401816173
:101640008069124D00F0040004904FF40070009087
:10165000022001900320039069462846FEF750FEC1
:101660002815CDE90004694628460294FEF748FE95
:10167000002211462520FEF7A9FF2520FEF798FF3E
:1016800005B030BD003801400010024000080140A4
:1016900090F84230202B01D00220704721B11AB1BE
:1016A0000023036300F01ABC0120704730B41548D2
:1016B00000220146847A0123C968302C0DD0312CD8
:1016C00011D0322C15D0332C19D102704270827097
:1016D000C3700DA030BC00F061BC0370427082701A
:1016E000C2700EA0F6E7027043708270C27010A044
:1016F000F0E7027042708370C27011A0EAE730BC5C
:101700007047000000000020332D2D526967687477
:10171000202025640A20202000000000302D2D53B9
:1017200074726169676874202025640A2020200093
:10173000312D2D53746F70202025640A2020200045
:10174000322D2D4C656674202025640A202020004F
:101750002DE9F843044690F841001F4616460D4611
:10176000202802D00220BDE8F8837DB176B10020A8
:101770006064212084F84100FEF7BCFEA684804608
:10178000E684A068B0F5805F02D003E00120EAE7BC
:10179000206910B12E4600250EE000260CE08021C5
:1017A000204600F0B6FBA0B9AEB116F8010B2168D7
:1017B0004860E08C401EE084E08C43464FF000021D
:1017C00000970028EBD14FF04001204600F0A1FB2C
:1017D00030B10320C7E735F8020BC0F30800E6E795
:1017E000202084F841000020BDE77047FEE700009C
:1017F00070B586B000241F480094019402940394AD
:10180000816941F020018161816901F02001049129
:10181000816941F004018161816901F00401049151
:10182000816941F0080181618069134E00F0080070
:1018300004900122F7213046FEF757FEF720009072
:1018400001AA0120022582E8310069463046FEF7F0
:1018500057FD4FF470408DE8310069460748FEF7A8
:101860004FFDE8018DE8310069463046FEF748FD3E
:1018700006B070BD0010024000080140000C01409D
:1018800010B58EB000240794089409940A940B9420
:101890001C2168460C94FEF74CFC21484FF0804117
:1018A00001604721C0E901146321C0E90314846188
:1018B000FFF774F908B1FEF7B1FC4FF480500790C0
:1018C00007A91748FFF7ECF908B1FEF7A7FC144881
:1018D000FFF775FC08B1FEF7A1FC0B940BA91048AB
:1018E0000C94FFF727F908B1FEF798FC6020CDE9CA
:1018F000000402940022694609480494FFF7F9FBAA
:1019000008B1FEF78BFC042269460548FFF7F1FB9E
:1019100008B1FEF783FC0248FFF7A8FB0EB010BD2C
:101920005000002010B586B00024174800940194A0
:1019300002940394049413490594016042F20F71D8
:10194000C0E9011441F61F41C0E903148461FFF7A7
:1019500025F908B1FEF762FC4FF48050009069460B
:101960000948FFF79DF908B1FEF758FC049404A953
:1019700005480594FFF7DEF8002801D0FEF74EFC7D
:1019800006B010BD000400409800002010B58CB0D7
:1019900024216846FEF7CDFB00241548099413491D
:1019A0000A94C0E900144FF6FF71C0E902410461D6
:1019B00084610120CDE90004CDE902040494CDE95D
:1019C0000540079469460A480894FFF7D7F908B11B
:1019D000FEF724FC099409A905480A94FFF7AAF820
:1019E000002801D0FEF71AFC0CB010BD0008004022
:1019F000E00000200C4810B50A4901604FF4165170
:101A00004160002181600C22C160C0E90412816143
:101A1000C161FFF7CBFD002803D0BDE81040FEF701
:101A2000FDBB10BD0038014028010020FEE7FEE7A5
:101A300006480021074A0160416081600161C16080
:101A40000349C0E90512C161704700003000002061
:101A5000CDCC4C3E0AD7233D70477047FEF750BDB2
:101A600030B58FB028216846FEF763FB14210AA821
:101A7000FEF75FFB01210804CDE900100024029469
:101A800002250491CDE907504FF4E0100990684613
:101A9000FEF7AAFE08B172B6FEE70F20CDE90A05EF
:101AA0004FF48060CDE90C4002210AA80E94FEF7A5
:101AB000BFFD002801D072B6FEE70FB030BD704701
:101AC0000148FFF71FBA000098000020F0B5026837
:101AD000164B174C174D4FF08047984205D0B8422F
:101AE00003D0A04201D0A84203D122F070064A6878
:101AF0003243984205D0B84203D0A04201D0A84258
:101B000003D122F44074CA6822434C6922F0800257
:101B1000224302608A68C2620A688262984201D1E6
:101B20000969016301214161F0BD0000002C014001
:101B3000000400400008004010B501F01F0301211F
:101B4000046A99408C430462016A9A40114301621D
:101B500010BD10B5846842EA032224F47F440A438E
:101B60002243826010BD826822F070020A4342F074
:101B7000070181607047000030B5036A026A22F0F5
:101B8000010202624268846924F073050C682C43E8
:101B900023F002058B682B430A4DA8420BD123F09A
:101BA0000805CB6822F440722B434D6923F00403EF
:101BB00015438A692A43426084614968416303622C
:101BC00030BD0000002C014030B5026A036A23F0EA
:101BD00010030362436884690D6824F4E64444EA10
:101BE00005248D6822F0200242EA05120B4DA8421E
:101BF0000ED1CD6822F0800242EA05124D6923F42D
:101C0000406343EA85038D6922F0400243EA85037D
:101C10004360846149688163026230BD002C0140E9
:101C200030B5036A026A22F4807202624268C469B3
:101C300023F4007324F073050C682C438D6843EA89
:101C400005230C4DA8420ED1CD6823F4006343EA6E
:101C500005234D6922F4405242EA05128D6923F4AE
:101C6000806342EA05124260C4614968C16303624D
:101C700030BD0000002C014030B5046A026A22F435
:101C8000805202624268C3690D6823F4E64343EA66
:101C900005238D6824F4005444EA0534064DA84217
:101CA00004D14D6922F4804242EA85124260C36148
:101CB00049680164046230BD002C014010B5036A1C
:101CC000046A24F001040462846924F0F00444EA04
:101CD000021423F00A020A438461026210BD10B5A7
:101CE000036A046A24F010040462846923F0A003E8
:101CF00024F4704444EA023243EA01118261016231
:101D000010BD10B5406A0021C185C184FFF716FBE4
:101D100010BD01680C3151E8002F22F4907241E8A7
:101D20000023002BF5D10168143151E8002F22F077
:101D3000010241E80023002BF5D1016B012909D1F3
:101D400001680C3151E8002F22F0100241E8002315
:101D5000002BF5D1202180F842100021016370474B
:101D600008B590F84210222901D0022008BD8268EF
:101D70004FF480539A4201D1016921B1816A9A429C
:101D80001BD04AB10AE00268816A5268C2F30802B5
:101D90000A80816A891C08E0026972B1026852688F
:101DA00002F07F020A70816A491C8162C18D491E5E
:101DB0000904090CC18503D01BE002685268F1E7F1
:101DC0000168CA6822F02002CA600168CA6822F469
:101DD0008072CA6001684A6922F001024A612021CA
:101DE00080F8421000214163026B012A03D0FFF703
:101DF0005DFC002008BD016301680C3151E8002F33
:101E000022F0100241E80023002BF5D101680A6896
:101E1000D20602D50A6849680091818DFFF78DFAD4
:101E2000E7E7000070B5044600680169E26821F444
:101E30004051114301612169A06808436169084369
:101E40002168CA6841F20C639A430243CA60206861
:101E50004169A26921F44071114341611E49206822
:101E6000884202D1FEF78AFC01E0FEF777FC00EB26
:101E7000C00101EB0012606864218000B2FBF0F346
:101E8000B3FBF1F36FF018067343B2FBF0F5B2FB4E
:101E9000F0F605EB8305322303EB0515B5FBF1F5F1
:101EA000B6FBF1F605F0F00505EB0615B2FBF0F612
:101EB000B2FBF0F0B0FBF1F06FF01802504306EB0C
:101EC000800003EB0010B0FBF1F0216800F00F0080
:101ED0002844886070BD000000380140816282851E
:101EE000C28500214164222180F84210016921B19C
:101EF0000168CA6842F48072CA6001684A6942F0A7
:101F000001024A610068C16841F02001C1600020FF
:101F100070472DE9F041984617460E460446069D47
:101F200027E0681C25D02DB1FEF7E4FAA0EB0800ED
:101F3000A8421ED920680C3050E8001F21F4D0714F
:101F400040E80012002AF5D12068143050E8001F44
:101F500021F0010140E80012002AF5D1202084F888
:101F6000410084F84200002084F840000320BDE8CE
:101F7000F0812068006836EA000004D00020B842F2
:101F8000CFD00020F3E70120F9E700000148FFF778
:101F9000D7B9000028010020FEE700000FB4054B70
:101FA00010B503A9044A029800F028F810BC5DF8A7
:101FB00014FB0000512100082C0000200907090E25
:101FC000002804DB00F1E02080F80014704700F0E6
:101FD0000F0000F1E02080F8141D704702E008C8EF
:101FE000121F08C1002AFAD170477047002001E093
:101FF00001C1121F002AFBD1704700002DE9FF4FDD
:1020000089B09B460446002506E025280BD05A4699
:102010000B999047641C6D1C20780028F5D10DB0F9
:102020002846BDE8F08F0027B8460122474900E066
:10203000074314F8013F203B02FA03F00842F7D1AE
:1020400020782E2819D114F8010F47F004072A2808
:102050000ED06FF02F022078A0F1300109290CD8A2
:1020600008EB880102EB410100EB0108641CF2E778
:102070000A98641C50F8048B0A9020780028CED06F
:10208000642808D0692806D075281ED05A460B99B6
:1020900090476D1C58E00A994FF00A0901C90A914E
:1020A000002802DA40422D2102E0390504D52B2117
:1020B0008DF82010012103E0F90704D02021F7E773
:1020C0008A4608AE0DE00021FAE70A994FF00A09A6
:1020D00001C90A91F7E74946FEF73FF8303106F8A3
:1020E000011D0028F7D1ADEB060000F120097807AB
:1020F00001D44FF00108C84502DDA8EB090000E05B
:1021000000208046002706E008A85A46C05D0B99CB
:1021100090476D1C7F1C5745F6DB04E030205A4683
:102120000B9990476D1CB8F10001A8F10108F5DC8E
:1021300005E016F8010B5A460B9990476D1CB9F152
:102140000001A9F10109F4DC641C65E7092801001C
:1021500013B54FF6FF73012269460248FFF7F8FAFC
:1021600000981CBD28010020FEF7D2F9FFF778FC8B
:10217000FFF73EFBFFF784FBFFF7D4FBFFF73AFCCA
:10218000FFF704FC0421B048FFF748F80021AE48EF
:10219000FFF744F8AD48FEF757FD3C21AC48FEF789
:1021A00069FEFFF745FCAB480024AB4EAB4DDFF8B2
:1021B0009882B7154FF0010B81464FF0640A846195
:1021C000A44901220A31A648FFF762FA0022102131
:1021D0003046FEF78AF9012220213046FEF785F9C4
:1021E000002240213046FEF780F90122802130464E
:1021F000FEF77BF939463046FEF772F9012817D110
:10220000C1032846FEF76CF9012811D18103284645
:10221000FEF766F960B94FF400512846FEF760F901
:10222000012805D101032846FEF75AF901280DD0EF
:1022300039463046FEF754F9012814D04FF40041D6
:102240002846FEF74DF901280DD018E089F804B0B2
:1022500089F8054089F8084089F8094089F806405E
:1022600089F80740BFE04FF400512846FEF738F9DF
:1022700028B94FF480512846FEF732F928B1394683
:102280003046FEF72DF968B120E089F8044089F85E
:10229000054089F8084089F809B089F8064089F8AE
:1022A0000740B5E04FF400412846FEF719F968B938
:1022B0004FF400512846FEF713F9012814D04FF4CB
:1022C00080512846FEF70CF901280DD039463046DA
:1022D000FEF706F9012814D04FF400412846FEF716
:1022E000FFF801280DD012E089F8044089F8054074
:1022F00089F808B089F8094089F8064089F807404C
:1023000082E04FF400512846FEF7EAF830B14FF46E
:1023100000412846FEF7E4F868B11AE089F8044065
:1023200089F8054089F8084089F8094089F806408D
:1023300089F807B07EE04FF400512846FEF7D0F848
:1023400001280CD04FF480512846FEF7C9F8012827
:1023500005D039463046FEF7C3F868B13FE089F84A
:10236000044089F8054089F8084089F8094089F84F
:1023700006B089F8074053E04FF400412846FEF7C5
:10238000AFF860BB4FF480412846FEF7A9F830BB98
:102390004FF400512846FEF7A3F800BB4FF48051DC
:1023A0002846FEF79DF8D0B999F80020484662B15A
:1023B000C1684EF66023491CC160994205DD047175
:1023C0004471047280F809B006E0027141784171ED
:1023D00081780172C1784172847189F8074099F857
:1023E0000410484629B1D8F800205146C2F838A058
:1023F00025E0417931B1D8F800108C63D8F800009D
:102400004463DDE6017A09B10A210AE0417A29B183
:10241000D8F80020C2F838A00A2110E0817929B14B
:102420003221D8F800209163514608E099F807005E
:102430000028E6D0D8F80020C2F838A03221D8F819
:1024400000004163BCE6000050000020980000201E
:10245000E00000200000002000080140000C0140C6
:1024600028010020010202030405060708090A0BDF
:102470000C0D0E0F10100000000000000000010203
:10248000030406070809000000000102030400001D
:10249000B02400080000002030000000DC1F00080D
:1024A000E02400083000002040050000EC1F000878
:1024B000000000000000000000000000000000001C
:1024C000000000000000000000000000010000000B
:1024D00010000000000000000024F40000000000D4
:04000005080000ED02
:00000001FF
